{"abi":[{"type":"constructor","inputs":[],"stateMutability":"nonpayable"},{"type":"fallback","stateMutability":"payable"},{"type":"receive","stateMutability":"payable"},{"type":"function","name":"MAX_LEADERBOARD","inputs":[],"outputs":[{"name":"","type":"uint256","internalType":"uint256"}],"stateMutability":"view"},{"type":"function","name":"MIN_GAME_DURATION","inputs":[],"outputs":[{"name":"","type":"uint256","internalType":"uint256"}],"stateMutability":"view"},{"type":"function","name":"SUBMIT_COOLDOWN","inputs":[],"outputs":[{"name":"","type":"uint256","internalType":"uint256"}],"stateMutability":"view"},{"type":"function","name":"UPGRADE_INTERFACE_VERSION","inputs":[],"outputs":[{"name":"","type":"string","internalType":"string"}],"stateMutability":"view"},{"type":"function","name":"activeSession","inputs":[{"name":"","type":"address","internalType":"address"}],"outputs":[{"name":"","type":"bytes32","internalType":"bytes32"}],"stateMutability":"view"},{"type":"function","name":"depositPrize","inputs":[],"outputs":[],"stateMutability":"payable"},{"type":"function","name":"distributeRewards","inputs":[],"outputs":[],"stateMutability":"nonpayable"},{"type":"function","name":"emergencyWithdraw","inputs":[],"outputs":[],"stateMutability":"nonpayable"},{"type":"function","name":"forceReset","inputs":[],"outputs":[],"stateMutability":"nonpayable"},{"type":"function","name":"getContractBalance","inputs":[],"outputs":[{"name":"","type":"uint256","internalType":"uint256"}],"stateMutability":"view"},{"type":"function","name":"getLeaderboard","inputs":[],"outputs":[{"name":"","type":"tuple[]","internalType":"struct StackBallGame.PlayerScore[]","components":[{"name":"player","type":"address","internalType":"address"},{"name":"score","type":"uint256","internalType":"uint256"},{"name":"rank","type":"uint256","internalType":"uint256"},{"name":"submittedAt","type":"uint256","internalType":"uint256"}]}],"stateMutability":"view"},{"type":"function","name":"getLeaderboardTop3","inputs":[],"outputs":[{"name":"p1","type":"address","internalType":"address"},{"name":"s1","type":"uint256","internalType":"uint256"},{"name":"p2","type":"address","internalType":"address"},{"name":"s2","type":"uint256","internalType":"uint256"},{"name":"p3","type":"address","internalType":"address"},{"name":"s3","type":"uint256","internalType":"uint256"}],"stateMutability":"view"},{"type":"function","name":"getPlayerStats","inputs":[{"name":"player","type":"address","internalType":"address"}],"outputs":[{"name":"","type":"tuple","internalType":"struct StackBallGame.PlayerStats","components":[{"name":"totalGames","type":"uint256","internalType":"uint256"},{"name":"bestScore","type":"uint256","internalType":"uint256"},{"name":"currentPeriodScore","type":"uint256","internalType":"uint256"},{"name":"currentRank","type":"uint256","internalType":"uint256"},{"name":"hasSubmittedThisPeriod","type":"bool","internalType":"bool"}]}],"stateMutability":"view"},{"type":"function","name":"getPrizes","inputs":[],"outputs":[{"name":"","type":"uint256","internalType":"uint256"},{"name":"","type":"uint256","internalType":"uint256"},{"name":"","type":"uint256","internalType":"uint256"}],"stateMutability":"view"},{"type":"function","name":"getTimeUntilReset","inputs":[],"outputs":[{"name":"","type":"uint256","internalType":"uint256"}],"stateMutability":"view"},{"type":"function","name":"initialize","inputs":[{"name":"owner","type":"address","internalType":"address"}],"outputs":[],"stateMutability":"nonpayable"},{"type":"function","name":"isPeriodExpired","inputs":[],"outputs":[{"name":"","type":"bool","internalType":"bool"}],"stateMutability":"view"},{"type":"function","name":"lastSubmitTime","inputs":[{"name":"","type":"address","internalType":"address"}],"outputs":[{"name":"","type":"uint256","internalType":"uint256"}],"stateMutability":"view"},{"type":"function","name":"leaderboard","inputs":[{"name":"","type":"uint256","internalType":"uint256"}],"outputs":[{"name":"player","type":"address","internalType":"address"},{"name":"score","type":"uint256","internalType":"uint256"},{"name":"rank","type":"uint256","internalType":"uint256"},{"name":"submittedAt","type":"uint256","internalType":"uint256"}],"stateMutability":"view"},{"type":"function","name":"owner","inputs":[],"outputs":[{"name":"","type":"address","internalType":"address"}],"stateMutability":"view"},{"type":"function","name":"periodDuration","inputs":[],"outputs":[{"name":"","type":"uint256","internalType":"uint256"}],"stateMutability":"view"},{"type":"function","name":"periodNumber","inputs":[],"outputs":[{"name":"","type":"uint256","internalType":"uint256"}],"stateMutability":"view"},{"type":"function","name":"periodStart","inputs":[],"outputs":[{"name":"","type":"uint256","internalType":"uint256"}],"stateMutability":"view"},{"type":"function","name":"playerStats","inputs":[{"name":"","type":"address","internalType":"address"}],"outputs":[{"name":"totalGames","type":"uint256","internalType":"uint256"},{"name":"bestScore","type":"uint256","internalType":"uint256"},{"name":"currentPeriodScore","type":"uint256","internalType":"uint256"},{"name":"currentRank","type":"uint256","internalType":"uint256"},{"name":"hasSubmittedThisPeriod","type":"bool","internalType":"bool"}],"stateMutability":"view"},{"type":"function","name":"prize1","inputs":[],"outputs":[{"name":"","type":"uint256","internalType":"uint256"}],"stateMutability":"view"},{"type":"function","name":"prize2","inputs":[],"outputs":[{"name":"","type":"uint256","internalType":"uint256"}],"stateMutability":"view"},{"type":"function","name":"prize3","inputs":[],"outputs":[{"name":"","type":"uint256","internalType":"uint256"}],"stateMutability":"view"},{"type":"function","name":"proxiableUUID","inputs":[],"outputs":[{"name":"","type":"bytes32","internalType":"bytes32"}],"stateMutability":"view"},{"type":"function","name":"renounceOwnership","inputs":[],"outputs":[],"stateMutability":"nonpayable"},{"type":"function","name":"sessions","inputs":[{"name":"","type":"bytes32","internalType":"bytes32"}],"outputs":[{"name":"player","type":"address","internalType":"address"},{"name":"startTime","type":"uint256","internalType":"uint256"},{"name":"isActive","type":"bool","internalType":"bool"},{"name":"isSubmitted","type":"bool","internalType":"bool"}],"stateMutability":"view"},{"type":"function","name":"setPrizes","inputs":[{"name":"_p1","type":"uint256","internalType":"uint256"},{"name":"_p2","type":"uint256","internalType":"uint256"},{"name":"_p3","type":"uint256","internalType":"uint256"}],"outputs":[],"stateMutability":"nonpayable"},{"type":"function","name":"startGame","inputs":[],"outputs":[{"name":"sessionId","type":"bytes32","internalType":"bytes32"}],"stateMutability":"nonpayable"},{"type":"function","name":"submitScore","inputs":[{"name":"totalScore","type":"uint256","internalType":"uint256"},{"name":"gameHash","type":"bytes32","internalType":"bytes32"}],"outputs":[],"stateMutability":"nonpayable"},{"type":"function","name":"transferOwnership","inputs":[{"name":"newOwner","type":"address","internalType":"address"}],"outputs":[],"stateMutability":"nonpayable"},{"type":"function","name":"upgradeToAndCall","inputs":[{"name":"newImplementation","type":"address","internalType":"address"},{"name":"data","type":"bytes","internalType":"bytes"}],"outputs":[],"stateMutability":"payable"},{"type":"function","name":"usedHashes","inputs":[{"name":"","type":"bytes32","internalType":"bytes32"}],"outputs":[{"name":"","type":"bool","internalType":"bool"}],"stateMutability":"view"},{"type":"event","name":"GameStarted","inputs":[{"name":"player","type":"address","indexed":true,"internalType":"address"},{"name":"sessionId","type":"bytes32","indexed":true,"internalType":"bytes32"},{"name":"timestamp","type":"uint256","indexed":false,"internalType":"uint256"}],"anonymous":false},{"type":"event","name":"Initialized","inputs":[{"name":"version","type":"uint64","indexed":false,"internalType":"uint64"}],"anonymous":false},{"type":"event","name":"LeaderboardReset","inputs":[{"name":"periodNumber","type":"uint256","indexed":true,"internalType":"uint256"},{"name":"timestamp","type":"uint256","indexed":false,"internalType":"uint256"}],"anonymous":false},{"type":"event","name":"OwnershipTransferred","inputs":[{"name":"previousOwner","type":"address","indexed":true,"internalType":"address"},{"name":"newOwner","type":"address","indexed":true,"internalType":"address"}],"anonymous":false},{"type":"event","name":"PrizeDeposited","inputs":[{"name":"from","type":"address","indexed":true,"internalType":"address"},{"name":"amount","type":"uint256","indexed":false,"internalType":"uint256"},{"name":"contractBalance","type":"uint256","indexed":false,"internalType":"uint256"}],"anonymous":false},{"type":"event","name":"RewardsDistributed","inputs":[{"name":"winner1","type":"address","indexed":true,"internalType":"address"},{"name":"winner2","type":"address","indexed":true,"internalType":"address"},{"name":"winner3","type":"address","indexed":true,"internalType":"address"},{"name":"amount1","type":"uint256","indexed":false,"internalType":"uint256"},{"name":"amount2","type":"uint256","indexed":false,"internalType":"uint256"},{"name":"amount3","type":"uint256","indexed":false,"internalType":"uint256"},{"name":"periodNumber","type":"uint256","indexed":false,"internalType":"uint256"}],"anonymous":false},{"type":"event","name":"ScoreSubmitted","inputs":[{"name":"player","type":"address","indexed":true,"internalType":"address"},{"name":"score","type":"uint256","indexed":false,"internalType":"uint256"},{"name":"rank","type":"uint256","indexed":false,"internalType":"uint256"},{"name":"periodNumber","type":"uint256","indexed":false,"internalType":"uint256"},{"name":"timestamp","type":"uint256","indexed":false,"internalType":"uint256"}],"anonymous":false},{"type":"event","name":"Upgraded","inputs":[{"name":"implementation","type":"address","indexed":true,"internalType":"address"}],"anonymous":false},{"type":"error","name":"AddressEmptyCode","inputs":[{"name":"target","type":"address","internalType":"address"}]},{"type":"error","name":"ERC1967InvalidImplementation","inputs":[{"name":"implementation","type":"address","internalType":"address"}]},{"type":"error","name":"ERC1967NonPayable","inputs":[]},{"type":"error","name":"FailedCall","inputs":[]},{"type":"error","name":"InvalidInitialization","inputs":[]},{"type":"error","name":"NotInitializing","inputs":[]},{"type":"error","name":"OwnableInvalidOwner","inputs":[{"name":"owner","type":"address","internalType":"address"}]},{"type":"error","name":"OwnableUnauthorizedAccount","inputs":[{"name":"account","type":"address","internalType":"address"}]},{"type":"error","name":"UUPSUnauthorizedCallContext","inputs":[]},{"type":"error","name":"UUPSUnsupportedProxiableUUID","inputs":[{"name":"slot","type":"bytes32","internalType":"bytes32"}]}],"bytecode":{"object":"0x60a06040523060805234801562000014575f80fd5b506200001f62000025565b620000d9565b7ff0c57e16840df040f15088dc2f81fe391c3923bec73e23a9662efc9c229c6a00805468010000000000000000900460ff1615620000765760405163f92ee8a960e01b815260040160405180910390fd5b80546001600160401b0390811614620000d65780546001600160401b0319166001600160401b0390811782556040519081527fc7f505b2f371ae2175ee4913f4499e1f2633a7b5936321eed1cdaeb6115181d29060200160405180910390a15b50565b608051612890620001005f395f818161187c015281816118a50152611a1901526128905ff3fe6080604052600436106101fa575f3560e01c80637dbd28321161010b578063c05b55ac11610099578063db2e21bc1161006b578063db2e21bc146106c8578063def8315a146106dc578063ec000bb5146106fb578063eda4e6d61461072b578063f2fde38b1461074057005b8063c05b55ac1461060b578063c4d66de814610620578063cdafbbb61461063f578063d65ab5f2146106b457005b80638da5cb5b116100dd5780638da5cb5b14610517578063ad3cb1cc14610543578063aef18bf714610580578063b470aade146105ae578063bf368399146105c257005b80637dbd2832146104325780638b680cc3146104b45780638b6d4bde146104c85780638d39905f146104ec57005b8063513a39b7116101885780636f4a2cd01161015a5780636f4a2cd0146103c45780636f9fb98a146103d8578063715018a6146103ea5780637675a419146103fe57806379ec0eaf1461041357005b8063513a39b71461036657806352d1902d1461037a578063618abf121461038e5780636d763a6e146103a357005b806327e39313116101cc57806327e393131461027e578063409f6c63146102d55780634e083278146102e95780634f1ef286146102f15780634fd66eae1461030457005b806302802a6414610203578063085239681461022a5780630df99ff114610255578063115e33ae1461026a57005b3661020157005b005b34801561020e575f80fd5b50610217603281565b6040519081526020015b60405180910390f35b348015610235575f80fd5b50610217610244366004612521565b60096020525f908152604090205481565b348015610260575f80fd5b5061021760025481565b348015610275575f80fd5b50610217600a81565b348015610289575f80fd5b5061029261075f565b604080516001600160a01b0397881681526020810196909652938616938501939093526060840191909152909216608082015260a081019190915260c001610221565b3480156102e0575f80fd5b50610217601e81565b610201610897565b6102016102ff366004612555565b610964565b34801561030f575f80fd5b5061032361031e366004612521565b610983565b60405161022191905f60a0820190508251825260208301516020830152604083015160408301526060830151606083015260808301511515608083015292915050565b348015610371575f80fd5b50610217610a0e565b348015610385575f80fd5b50610217610a3f565b348015610399575f80fd5b5061021760055481565b3480156103ae575f80fd5b506103b7610a5a565b6040516102219190612611565b3480156103cf575f80fd5b50610201610ae2565b3480156103e3575f80fd5b5047610217565b3480156103f5575f80fd5b50610201610f17565b348015610409575f80fd5b5061021760035481565b34801561041e575f80fd5b5061020161042d36600461267d565b610f2a565b34801561043d575f80fd5b5061048261044c3660046126a6565b60086020525f90815260409020805460018201546002909201546001600160a01b03909116919060ff8082169161010090041684565b604080516001600160a01b03909516855260208501939093529015159183019190915215156060820152608001610221565b3480156104bf575f80fd5b50610201610f70565b3480156104d3575f80fd5b506104dc610fb0565b6040519015158152602001610221565b3480156104f7575f80fd5b50610217610506366004612521565b600b6020525f908152604090205481565b348015610522575f80fd5b5061052b610fbe565b6040516001600160a01b039091168152602001610221565b34801561054e575f80fd5b50610573604051806040016040528060058152602001640352e302e360dc1b81525081565b60405161022191906126bd565b34801561058b575f80fd5b506104dc61059a3660046126a6565b600a6020525f908152604090205460ff1681565b3480156105b9575f80fd5b506102175f5481565b3480156105cd575f80fd5b506105e16105dc3660046126a6565b610fec565b604080516001600160a01b0390951685526020850193909352918301526060820152608001610221565b348015610616575f80fd5b5061021760045481565b34801561062b575f80fd5b5061020161063a366004612521565b61102e565b34801561064a575f80fd5b5061068a610659366004612521565b60076020525f9081526040902080546001820154600283015460038401546004909401549293919290919060ff1685565b6040805195865260208601949094529284019190915260608301521515608082015260a001610221565b3480156106bf575f80fd5b5061021761115a565b3480156106d3575f80fd5b506102016112e6565b3480156106e7575f80fd5b506102016106f6366004612709565b6113c7565b348015610706575f80fd5b5060035460045460055460408051938452602084019290925290820152606001610221565b348015610736575f80fd5b5061021760015481565b34801561074b575f80fd5b5061020161075a366004612521565b611837565b5f805f805f805f6006805490509050600181106107ca5760065f8154811061078957610789612729565b5f9182526020822060049091020154600680546001600160a01b03909216995091906107b7576107b7612729565b905f5260205f2090600402016001015495505b6002811061082c5760066001815481106107e6576107e6612729565b5f918252602090912060049091020154600680546001600160a01b03909216965090600190811061081957610819612729565b905f5260205f2090600402016001015493505b6003811061088e57600660028154811061084857610848612729565b5f918252602090912060049091020154600680546001600160a01b03909216945090600290811061087b5761087b612729565b905f5260205f2090600402016001015491505b50909192939495565b61089f610fbe565b6001600160a01b0316336001600160a01b0316146108d85760405162461bcd60e51b81526004016108cf9061273d565b60405180910390fd5b5f34116109275760405162461bcd60e51b815260206004820152601960248201527f537461636b42616c6c3a206d7573742073656e642043454c4f0000000000000060448201526064016108cf565b6040805134815247602082015233917f93e71a765d9dbd78bb81630ff384cea4889a4dd193703dd81f51584e20e7150891015b60405180910390a2565b61096c611871565b61097582611915565b61097f828261194d565b5050565b6109b26040518060a001604052805f81526020015f81526020015f81526020015f81526020015f151581525090565b506001600160a01b03165f90815260076020908152604091829020825160a081018452815481526001820154928101929092526002810154928201929092526003820154606082015260049091015460ff161515608082015290565b5f805f54600154610a1f919061277f565b9050804210610a2f575f91505090565b610a394282612792565b91505090565b5f610a48611a0e565b505f8051602061283b83398151915290565b60606006805480602002602001604051908101604052809291908181526020015f905b82821015610ad9575f848152602090819020604080516080810182526004860290920180546001600160a01b03168352600180820154848601526002820154928401929092526003015460608301529083529092019101610a7d565b50505050905090565b610aea610fbe565b6001600160a01b0316336001600160a01b031614610b1a5760405162461bcd60e51b81526004016108cf9061273d565b610b22611a57565b610b785760405162461bcd60e51b815260206004820152602160248201527f537461636b42616c6c3a20706572696f64206e6f7420796574206578706972656044820152601960fa1b60648201526084016108cf565b600554600454600354610b8b919061277f565b610b95919061277f565b471015610be45760405162461bcd60e51b815260206004820152601f60248201527f537461636b42616c6c3a20696e73756666696369656e742062616c616e63650060448201526064016108cf565b5f805f805f805f600680549050905060018110610cd35760065f81548110610c0e57610c0e612729565b5f9182526020822060049190910201546003546040516001600160a01b0390921699509550889086908381818185875af1925050503d805f8114610c6d576040519150601f19603f3d011682016040523d82523d5f602084013e610c72565b606091505b5050905080610cd15760405162461bcd60e51b815260206004820152602560248201527f537461636b42616c6c3a207472616e7366657220746f2077696e6e6572312066604482015264185a5b195960da1b60648201526084016108cf565b505b60028110610db2576006600181548110610cef57610cef612729565b5f918252602082206004918202015490546040516001600160a01b0390921698509450879085908381818185875af1925050503d805f8114610d4c576040519150601f19603f3d011682016040523d82523d5f602084013e610d51565b606091505b5050905080610db05760405162461bcd60e51b815260206004820152602560248201527f537461636b42616c6c3a207472616e7366657220746f2077696e6e6572322066604482015264185a5b195960da1b60648201526084016108cf565b505b60038110610e93576006600281548110610dce57610dce612729565b5f9182526020822060049190910201546005546040516001600160a01b0390921697509350869084908381818185875af1925050503d805f8114610e2d576040519150601f19603f3d011682016040523d82523d5f602084013e610e32565b606091505b5050905080610e915760405162461bcd60e51b815260206004820152602560248201527f537461636b42616c6c3a207472616e7366657220746f2077696e6e6572332066604482015264185a5b195960da1b60648201526084016108cf565b505b846001600160a01b0316866001600160a01b0316886001600160a01b03167fe1e53d9ade3c853d9b3ec1f596be05ab7dadad76fc63c50dd2a1caeebac93365878787600254604051610efe949392919093845260208401929092526040830152606082015260800190565b60405180910390a4610f0e611a6f565b50505050505050565b610f1f611ac8565b610f285f611afa565b565b610f32610fbe565b6001600160a01b0316336001600160a01b031614610f625760405162461bcd60e51b81526004016108cf9061273d565b600392909255600455600555565b610f78610fbe565b6001600160a01b0316336001600160a01b031614610fa85760405162461bcd60e51b81526004016108cf9061273d565b610f28611a6f565b5f610fb9611a57565b905090565b7f9016d09d72d40fdae2fd8ceac6b6234c7706214fd39c1cd1e609a0528c199300546001600160a01b031690565b60068181548110610ffb575f80fd5b5f91825260209091206004909102018054600182015460028301546003909301546001600160a01b039092169350919084565b5f611037611b6a565b805490915060ff600160401b820416159067ffffffffffffffff165f8115801561105e5750825b90505f8267ffffffffffffffff16600114801561107a5750303b155b905081158015611088575080155b156110a65760405163f92ee8a960e01b815260040160405180910390fd5b845467ffffffffffffffff1916600117855583156110d057845460ff60401b1916600160401b1785555b6110d986611b94565b6203f4805f5542600190815560025567d02ab486cedc000060035567b469471f80140000600455678ac7230489e80000600555831561115257845460ff60401b19168555604051600181527fc7f505b2f371ae2175ee4913f4499e1f2633a7b5936321eed1cdaeb6115181d29060200160405180910390a15b505050505050565b5f611163611a57565b156111805760405162461bcd60e51b81526004016108cf906127a5565b50335f8181526007602090815260408083205481516bffffffffffffffffffffffff19606087901b168185015242603482015244605482015260748082019290925282518082039092018252609401825280519083012093835260099091529020548015611201575f818152600860205260409020600201805460ff191690555b604080516080810182523380825242602080840191825260018486018181525f606087018181528a825260088552888220975188546001600160a01b0319166001600160a01b039091161788559451928701929092555160029095018054935161ffff1990941695151561ff0019169590951761010093151593909302929092179093559081526009825282812085905560079091529081208054916112a6836127f6565b9091555050604051428152829033907f859d3597c1e4f44ea32d4e3690849b94fd0a0a07a15da3f5663ecf3c4cd5b0f09060200160405180910390a35090565b6112ee610fbe565b6001600160a01b0316336001600160a01b03161461131e5760405162461bcd60e51b81526004016108cf9061273d565b5f611327610fbe565b6001600160a01b0316476040515f6040518083038185875af1925050503d805f811461136e576040519150601f19603f3d011682016040523d82523d5f602084013e611373565b606091505b50509050806113c45760405162461bcd60e51b815260206004820152601a60248201527f537461636b42616c6c3a207769746864726177206661696c656400000000000060448201526064016108cf565b50565b6113cf611a57565b156113ec5760405162461bcd60e51b81526004016108cf906127a5565b5f818152600a602052604090205460ff161561144a5760405162461bcd60e51b815260206004820152601c60248201527f537461636b42616c6c3a206861736820616c726561647920757365640000000060448201526064016108cf565b335f90815260096020526040902054806114a65760405162461bcd60e51b815260206004820152601c60248201527f537461636b42616c6c3a206e6f206163746976652073657373696f6e0000000060448201526064016108cf565b5f81815260086020526040902080546001600160a01b0316331461150c5760405162461bcd60e51b815260206004820152601b60248201527f537461636b42616c6c3a206e6f7420796f75722073657373696f6e000000000060448201526064016108cf565b600281015460ff166115605760405162461bcd60e51b815260206004820152601d60248201527f537461636b42616c6c3a2073657373696f6e206e6f742061637469766500000060448201526064016108cf565b6002810154610100900460ff16156115ba5760405162461bcd60e51b815260206004820152601c60248201527f537461636b42616c6c3a20616c7265616479207375626d69747465640000000060448201526064016108cf565b600a81600101546115cb919061277f565b42101561161a5760405162461bcd60e51b815260206004820152601960248201527f537461636b42616c6c3a2067616d6520746f6f2073686f72740000000000000060448201526064016108cf565b335f908152600b6020526040902054158061164f5750335f908152600b602052604090205461164b90601e9061277f565b4210155b61169b5760405162461bcd60e51b815260206004820152601a60248201527f537461636b42616c6c3a207375626d697420746f6f20736f6f6e00000000000060448201526064016108cf565b5f84116116f45760405162461bcd60e51b815260206004820152602160248201527f537461636b42616c6c3a2073636f7265206d75737420626520706f73697469766044820152606560f81b60648201526084016108cf565b5f838152600a60209081526040808320805460ff1916600190811790915560028501805461ffff191661010017905533845260098352818420849055600b835281842042905560079092529091209081015485111561175557600181018590555b806002015485111561177c576002810185905560048101805460ff191660011790556117cf565b600254604080518781525f60208201529081019190915242606082015233907f04f4c0f5a4a2f0a08f6e3b4fd6a5abaa7af15961534922311add59aeef2e1d929060800160405180910390a25050505050565b5f6117da3387611ba5565b600383018190556002546040805189815260208101849052808201929092524260608301525191925033917f04f4c0f5a4a2f0a08f6e3b4fd6a5abaa7af15961534922311add59aeef2e1d929181900360800190a2505050505050565b61183f611ac8565b6001600160a01b03811661186857604051631e4fbdf760e01b81525f60048201526024016108cf565b6113c481611afa565b306001600160a01b037f00000000000000000000000000000000000000000000000000000000000000001614806118f757507f00000000000000000000000000000000000000000000000000000000000000006001600160a01b03166118eb5f8051602061283b833981519152546001600160a01b031690565b6001600160a01b031614155b15610f285760405163703e46dd60e11b815260040160405180910390fd5b61191d610fbe565b6001600160a01b0316336001600160a01b0316146113c45760405162461bcd60e51b81526004016108cf9061273d565b816001600160a01b03166352d1902d6040518163ffffffff1660e01b8152600401602060405180830381865afa9250505080156119a7575060408051601f3d908101601f191682019092526119a49181019061280e565b60015b6119cf57604051634c9c8ce360e01b81526001600160a01b03831660048201526024016108cf565b5f8051602061283b83398151915281146119ff57604051632a87526960e21b8152600481018290526024016108cf565b611a098383611efe565b505050565b306001600160a01b037f00000000000000000000000000000000000000000000000000000000000000001614610f285760405163703e46dd60e11b815260040160405180910390fd5b5f8054600154611a67919061277f565b421015905090565b611a7a60065f6124b6565b60028054905f611a89836127f6565b9091555050426001819055600254604051918252907f5bd512e9196ccf4c945064ad869f924ffc78afd860d0896106b20a3345b486229060200161095a565b33611ad1610fbe565b6001600160a01b031614610f285760405163118cdaa760e01b81523360048201526024016108cf565b7f9016d09d72d40fdae2fd8ceac6b6234c7706214fd39c1cd1e609a0528c19930080546001600160a01b031981166001600160a01b03848116918217845560405192169182907f8be0079c531659141344cd1fd0a4f28419497f9722a3daafe3b4186f6b6457e0905f90a3505050565b5f807ff0c57e16840df040f15088dc2f81fe391c3923bec73e23a9662efc9c229c6a005b92915050565b611b9c611f53565b6113c481611f78565b6006545f90815b81811015611ce557846001600160a01b031660068281548110611bd157611bd1612729565b5f9182526020909120600490910201546001600160a01b031603611cdd578360068281548110611c0357611c03612729565b905f5260205f209060040201600101819055504260068281548110611c2a57611c2a612729565b905f5260205f20906004020160030181905550611c4681611f80565b5f5b600654811015611cdb57856001600160a01b031660068281548110611c6f57611c6f612729565b5f9182526020909120600490910201546001600160a01b031603611cd357611c9881600161277f565b60068281548110611cab57611cab612729565b5f918252602090912060026004909202010155611cc981600161277f565b9350505050611b8e565b600101611c48565b505b600101611bac565b506032811080611d2a57505f81118015611d2a57506006611d07600183612792565b81548110611d1757611d17612729565b905f5260205f2090600402016001015483115b15611ef75760328103611dd157604080516080810182526001600160a01b0386168152602081018590529081018290524260608201526006611d6d600184612792565b81548110611d7d57611d7d612729565b5f91825260209182902083516004929092020180546001600160a01b0319166001600160a01b0390921691909117815590820151600182015560408201516002820155606090910151600390910155611e5f565b60066040518060800160405280866001600160a01b03168152602001858152602001836001611e00919061277f565b8152426020918201528254600180820185555f94855293829020835160049092020180546001600160a01b0319166001600160a01b03909216919091178155908201519281019290925560408101516002830155606001516003909101555b611e6761214f565b5f5b600654811015611ef557611e7e81600161277f565b60068281548110611e9157611e91612729565b905f5260205f20906004020160020181905550846001600160a01b031660068281548110611ec157611ec1612729565b5f9182526020909120600490910201546001600160a01b031603611eed57611eea81600161277f565b92505b600101611e69565b505b5092915050565b611f078261234b565b6040516001600160a01b038316907fbc7cd75a20ee27fd9adebab32041f755214dbc6bffa90cc0225b39da2e5c2d3b905f90a2805115611f4b57611a0982826123ae565b61097f612447565b611f5b612466565b610f2857604051631afcd79f60e31b815260040160405180910390fd5b61183f611f53565b5f81118015611fdc57506006611f97600183612792565b81548110611fa757611fa7612729565b905f5260205f2090600402016001015460068281548110611fca57611fca612729565b905f5260205f20906004020160010154115b156113c4575f60068281548110611ff557611ff5612729565b5f91825260209182902060408051608081018252600490930290910180546001600160a01b0316835260018082015494840194909452600281015491830191909152600301546060820152915060069061204f9084612792565b8154811061205f5761205f612729565b905f5260205f2090600402016006838154811061207e5761207e612729565b5f9182526020909120825460049092020180546001600160a01b0319166001600160a01b039092169190911781556001808301548183015560028084015490830155600392830154929091019190915581906006906120dd9085612792565b815481106120ed576120ed612729565b5f91825260209182902083516004929092020180546001600160a01b0319166001600160a01b03909216919091178155908201516001820155604082015160028201556060909101516003909101558161214681612825565b92505050611f80565b6006545f5b61215f600183612792565b81101561097f575f5b60016121748385612792565b61217e9190612792565b81101561234257600661219282600161277f565b815481106121a2576121a2612729565b905f5260205f20906004020160010154600682815481106121c5576121c5612729565b905f5260205f20906004020160010154101561233a575f600682815481106121ef576121ef612729565b5f91825260209182902060408051608081018252600490930290910180546001600160a01b0316835260018082015494840194909452600281015491830191909152600301546060820152915060069061224a90849061277f565b8154811061225a5761225a612729565b905f5260205f2090600402016006838154811061227957612279612729565b5f9182526020909120825460049092020180546001600160a01b0319166001600160a01b039092169190911781556001808301548183015560028084015490830155600392830154929091019190915581906006906122d990859061277f565b815481106122e9576122e9612729565b5f91825260209182902083516004929092020180546001600160a01b0319166001600160a01b0390921691909117815590820151600182015560408201516002820155606090910151600390910155505b600101612168565b50600101612154565b806001600160a01b03163b5f0361238057604051634c9c8ce360e01b81526001600160a01b03821660048201526024016108cf565b5f8051602061283b83398151915280546001600160a01b0319166001600160a01b0392909216919091179055565b60605f6123bb848461247f565b90508080156123dc57505f3d11806123dc57505f846001600160a01b03163b115b156123f1576123e9612492565b915050611b8e565b801561241b57604051639996b31560e01b81526001600160a01b03851660048201526024016108cf565b3d1561242e576124296124ab565b611ef7565b60405163d6bda27560e01b815260040160405180910390fd5b3415610f285760405163b398979f60e01b815260040160405180910390fd5b5f61246f611b6a565b54600160401b900460ff16919050565b5f805f835160208501865af49392505050565b6040513d81523d5f602083013e3d602001810160405290565b6040513d5f823e3d81fd5b5080545f8255600402905f5260205f20908101906113c491905b808211156125025780546001600160a01b03191681555f600182018190556002820181905560038201556004016124d0565b5090565b80356001600160a01b038116811461251c575f80fd5b919050565b5f60208284031215612531575f80fd5b61253a82612506565b9392505050565b634e487b7160e01b5f52604160045260245ffd5b5f8060408385031215612566575f80fd5b61256f83612506565b9150602083013567ffffffffffffffff8082111561258b575f80fd5b818501915085601f83011261259e575f80fd5b8135818111156125b0576125b0612541565b604051601f8201601f19908116603f011681019083821181831017156125d8576125d8612541565b816040528281528860208487010111156125f0575f80fd5b826020860160208301375f6020848301015280955050505050509250929050565b602080825282518282018190525f919060409081850190868401855b8281101561267057815180516001600160a01b0316855286810151878601528581015186860152606090810151908501526080909301929085019060010161262d565b5091979650505050505050565b5f805f6060848603121561268f575f80fd5b505081359360208301359350604090920135919050565b5f602082840312156126b6575f80fd5b5035919050565b5f602080835283518060208501525f5b818110156126e9578581018301518582016040015282016126cd565b505f604082860101526040601f19601f8301168501019250505092915050565b5f806040838503121561271a575f80fd5b50508035926020909101359150565b634e487b7160e01b5f52603260045260245ffd5b60208082526014908201527329ba30b1b5a130b6361d103737ba1037bbb732b960611b604082015260600190565b634e487b7160e01b5f52601160045260245ffd5b80820180821115611b8e57611b8e61276b565b81810381811115611b8e57611b8e61276b565b60208082526031908201527f537461636b42616c6c3a20706572696f6420657870697265642c2063616c6c20604082015270646973747269627574655265776172647360781b606082015260800190565b5f600182016128075761280761276b565b5060010190565b5f6020828403121561281e575f80fd5b5051919050565b5f816128335761283361276b565b505f19019056fe360894a13ba1a3210667c828492db98dca3e2076cc3735a920a3ca505d382bbca26469706673582212204554347195e2cb7e1cc7e03c089d594a93ed302d0f7143ca73198282b3fe05d564736f6c63430008170033","linkReferences":{}},"methodIdentifiers":{"MAX_LEADERBOARD()":"02802a64","MIN_GAME_DURATION()":"115e33ae","SUBMIT_COOLDOWN()":"409f6c63","UPGRADE_INTERFACE_VERSION()":"ad3cb1cc","activeSession(address)":"08523968","depositPrize()":"4e083278","distributeRewards()":"6f4a2cd0","emergencyWithdraw()":"db2e21bc","forceReset()":"8b680cc3","getContractBalance()":"6f9fb98a","getLeaderboard()":"6d763a6e","getLeaderboardTop3()":"27e39313","getPlayerStats(address)":"4fd66eae","getPrizes()":"ec000bb5","getTimeUntilReset()":"513a39b7","initialize(address)":"c4d66de8","isPeriodExpired()":"8b6d4bde","lastSubmitTime(address)":"8d39905f","leaderboard(uint256)":"bf368399","owner()":"8da5cb5b","periodDuration()":"b470aade","periodNumber()":"0df99ff1","periodStart()":"eda4e6d6","playerStats(address)":"cdafbbb6","prize1()":"7675a419","prize2()":"c05b55ac","prize3()":"618abf12","proxiableUUID()":"52d1902d","renounceOwnership()":"715018a6","sessions(bytes32)":"7dbd2832","setPrizes(uint256,uint256,uint256)":"79ec0eaf","startGame()":"d65ab5f2","submitScore(uint256,bytes32)":"def8315a","transferOwnership(address)":"f2fde38b","upgradeToAndCall(address,bytes)":"4f1ef286","usedHashes(bytes32)":"aef18bf7"},"id":37}